:060000000200330200AD16
:03000B0002013DB2
:0300130002016087
:03001B000201617E
:0300230002016275
:03002B000201636C
:1000330075815F75891151E190007D51A574C0717F
:1000430004C2B7711190008D51A5514A515874D013
:1000530051687407516874105168515F51033164DA
:100063003171317E318B31B131BE31CB75B801D2B3
:10007300AFD288D2A843870180FB444154453A4418
:10008300442F44442F4D4D2F595954494D453A203F
:10009300202048483A4D4D3A5353202053754D6F15
:1000A30054755765546846725361C0E0C0D07800F8
:1000B3005129E530B54002806585304031647801CF
:1000C3005129E531B54102805585314131717802BD
:1000D3005129E532B542028045853242317E7803AB
:1000E3005129E533B543028035853343318B780499
:1000F3005129E534B54402802585344431B178056E
:100103005129E535B54502801585354531BE78065B
:100113005129E536B54602800585364631CBE532B1
:10012300B40712E531B4000DE530B400087E0A7F50
:10013300F0D2A9D28CD0D0D0E032C0E0C0D0C28CF3
:10014300758C3C758AB0D28CDE0EB2B47E0ADF08A1
:10015300C28CD2B4C2A98000D0D0D0E032323232C5
:100163003274CE7104C2B77111793051C92274CB84
:100173007104C2B77111793151C92274C87104C2B3
:10018300B77111793251C92274857104C2B77111E3
:0B01930090009DE53375F002A4F5F02C
:10019E00937104D2B77111E5F004937104D2B77163
:1001AE0011222274887104C2B77111793451C92297
:1001BE00748B7104C2B77111793551C922748E7165
:1001CE0004C2B77111793651C922514A515874D0AF
:1001DE00516874005168740051687410516874103D
:1001EE00516874045168741551687406516874220C
:1001FE005168515F22514A515874D0516874005160
:10020E0068514F74D1516878305190517EF608B8CC
:10021E0036F75190F5365187515F22514A51587435
:10022E00D05168E85168514F74D15168519051873F
:10023E00515FC0E0E82430F8D0E0F622D2B0D2B15F
:10024E0022C2B1D2B0D2B1C2B022D2B1C2B0C2B10A
:10025E0022C2B1C2B0D2B1D2B0227B08C2B13392A7
:10026E00B0D2B1DBF7C2B1D2B0D2B1A2B0C2B1221C
:10027E00C2B0D2B1C2B1D2B022D2B0D2B1C2B1D21A
:10028E00B1227B08C2B151A2D2B1A2B033DBF5C20A
:0F029E00B1D2B02200002278107400C0E051B33A
:1002AD00D0E004D8F72293B40002D3227104D2B760
:1002BD00C083C0827111D082D083C322E754F0C4B1
:1002CD0024307104D2B77111E7540F24307104D268
:1002DD00B7711122C2B674387104C2B771117401AD
:1002ED007104C2B77111740C7104C2B77111740627
:1002FD007104C2B7711122D2D37F047EFADEFEDF04
:0B030D00FAC2D322F580D2B6C2B6229D
:00000001FF
